:100000000C9434000C9451000C9451000C94510049
:100010000C9451000C9451000C9447010C94510025
:100020000C9451000C9451000C94F0000C946C0052
:100030000C9498000C94C4000C9451000C94510042
:100040000C9451000C9451000C9451000C945100EC
:100050000C9451000C9451000C9451000C945100DC
:100060000C9451000C94510011241FBECFEFD8E026
:10007000DEBFCDBF11E0A0E0B1E0EEEFF2E002C0E4
:1000800005900D92A830B107D9F721E0A8E0B1E0C2
:1000900001C01D92AA30B207E1F70E946D010C94D5
:1000A0007D010C9400000895089581E086BB809145
:1000B000080190910901019690930901809308012C
:1000C0008091080190910901C29720F010920901D6
:1000D00010920801089508951F920F920FB60F9283
:1000E00011242F933F934F935F936F937F938F933D
:1000F0009F93AF93BF93EF93FF93E0910601F0912D
:100100000701309709F0099582E080936F00FF9115
:10011000EF91BF91AF919F918F917F916F915F917F
:100120004F913F912F910F900FBE0F901F901895F8
:100130001F920F920FB60F9211242F933F934F935C
:100140005F936F937F938F939F93AF93BF93EF933F
:10015000FF93E0910401F0910501309709F00995B2
:1001600084E080936F00FF91EF91BF91AF919F91D9
:100170008F917F916F915F914F913F912F910F9050
:100180000FBE0F901F9018951F920F920FB60F92EF
:1001900011242F933F934F935F936F937F938F938C
:1001A0009F93AF93BF93EF93FF93E0910201F09180
:1001B0000301309709F0099581E080936F00FF916A
:1001C000EF91BF91AF919F918F917F916F915F91CF
:1001D0004F913F912F910F900FBE0F901F90189548
:1001E0001F920F920FB60F9211242F933F934F93AC
:1001F0005F936F937F938F939F93AF93BF93EF938F
:10020000FF93E0910001F0910101309709F0099509
:1002100080E280936F00FF91EF91BF91AF919F912A
:100220008F917F916F915F914F913F912F910F909F
:100230000FBE0F901F9018951092890010928800A1
:1002400010928B0010928A0082EA809380008CE1E9
:100250008093810084E294EF9093870080938600DE
:1002600013BC81E080936F0080E0089513BE15BE3B
:10027000789480E0089586E084B917B880E28AB95E
:1002800015B818B81BB813B816B819B808951F9246
:100290000F920FB60F9211248F93EF93FF93E0E626
:1002A000F0E080818F778083FF91EF918F910F90A5
:1002B0000FBE0F901F9018951092610013BE15BECF
:1002C00080E008950E943B010E945C011092600052
:1002D0000E941C010E94360108950E946201A8E854
:1002E000B0E022EE34E0EAE8F0E08EE390E0119630
:0E02F0003C932E9391838083FACFF894FFCF36
:0802FE006B0055005400530091
:02000004008278
:03000000C7DF0453
:00000001FF
