:100000000C943D000C94BC010C94BC010C94BC01FC
:100010000C94BC010C94BC010C9459010C94BC01CF
:100020000C94BC010C94BC010C94EB000C94670084
:100030000C9493000C94BF000C94BC010C94BC0174
:100040000C94BC010C94BC010C94BC010C94BC013C
:100050000C94BC010C9417010C94BC010C94BC01D1
:100060000C94BC010C94BC0101000102800102014E
:100070000A000380010A010E800011241FBECFEF89
:10008000D8E0DEBFCDBFE8E6F0E040E017C0B591B4
:10009000A59135912591059107FD0CC0959185910C
:1000A000EF01F92FE82F05900D92A217B307D9F7AA
:1000B000FE0104C01D92A217B307E1F7E937F40768
:0E00C00031F70E94B9010C946500F894FFCF4F
:1000CE001F920F920FB60F9211242F933F934F93BF
:1000DE005F936F937F938F939F93AF93BF93EF93A2
:1000EE00FF93E0910801F0910901309709F009950D
:1000FE0082E080936F00FF91EF91BF91AF919F913E
:10010E008F917F916F915F914F913F912F910F90B2
:08011E000FBE0F901F90189511
:100126001F920F920FB60F9211242F933F934F9366
:100136005F936F937F938F939F93AF93BF93EF9349
:10014600FF93E0910601F0910701309709F00995B8
:1001560084E080936F00FF91EF91BF91AF919F91E3
:100166008F917F916F915F914F913F912F910F905A
:080176000FBE0F901F901895B9
:10017E001F920F920FB60F9211242F933F934F930E
:10018E005F936F937F938F939F93AF93BF93EF93F1
:10019E00FF93E0910401F0910501309709F0099564
:1001AE0081E080936F00FF91EF91BF91AF919F918E
:1001BE008F917F916F915F914F913F912F910F9002
:0801CE000FBE0F901F90189561
:1001D6001F920F920FB60F9211242F933F934F93B6
:1001E6005F936F937F938F939F93AF93BF93EF9399
:1001F600FF93E0910201F0910301309709F0099510
:1002060080E280936F00FF91EF91BF91AF919F9134
:100216008F917F916F915F914F913F912F910F90A9
:080226000FBE0F901F90189508
:10022E001F920F920FB60F9211242F933F934F935D
:10023E005F936F937F938F939F93AF93BF93EF9340
:10024E00FF93E0910001F0910101309709F00995BB
:10025E00FF91EF91BF91AF919F918F917F916F9190
:10026E005F914F913F912F910F900FBE0F901F9066
:02027E001895D1
:1002800084E294EF909389008093880010928B0011
:1002900010928A00109280008CEC80938100109262
:1002A00087001092860013BC82E280936F0080E08A
:0202B0000895AF
:1002B2001F920F920FB60F9211248F93EF93FF9319
:1002C200E0E6F0E080818F778083FF91EF918F915C
:0A02D2000F900FBE0F901F901895BB
:1002DC0020910C0130910D014CE3429FC001439FD2
:1002EC00900D112490930B0180930A0110920D0133
:0602FC0010920C010895B0
:100302000E9499010E94B301109260000E94400174
:0A0312000E94AD010E948E010895C3
:10031C0080EC80937C0087E080937B0081E8809365
:06032C007A0080E0089554
:1003320014B817B81AB815B818B81BB813B816B845
:0403420019B8089549
:1003460080910C0190910D01019690930D0180937F
:040356000C010895F9
:0C035A0013BE81E085BF789480E0089518
:0C0366001092610013BE15BE80E00895E7
:060372000E948101FFCF93
:040378000C940000E1
:02037C000895E2
:02037E000895E0
:02038000A301D7
:02038200BF01B9
:02038400BE01B8
:020386006E0106
:02000004008278
:03000000D7DF0740
:00000001FF
