:100000000C9434000C94E5010C94FD010C94510007
:100010000C9451000C9451000C9408020C94510063
:100020000C9451000C9451000C94DB000C9457007C
:100030000C9483000C94AF000C9451010C947C013F
:100040000C94A7010C9451000C9451000C94510095
:100050000C9451000C94FF040C9451000C9451002A
:100060000C9451000C94510011241FBECFEFD8E026
:10007000DEBFCDBF11E0A0E0B1E0E4E2FFE002C0EE
:1000800005900D92AE31B107D9F721E0AEE1B1E0B4
:1000900001C01D92AC35B207E1F70E9434020C9406
:1000A00090070C94000008950895089508951F92F4
:1000B0000F920FB60F9211242F933F934F935F939C
:1000C0006F937F938F939F93AF93BF93EF93FF9320
:1000D000E0910601F0910701309709F0099582E05F
:1000E00080936F00FF91EF91BF91AF919F918F919E
:1000F0007F916F915F914F913F912F910F900FBE24
:100100000F901F9018951F920F920FB60F92112407
:100110002F933F934F935F936F937F938F939F930F
:10012000AF93BF93EF93FF93E0910401F09105012A
:10013000309709F0099584E080936F00FF91EF916B
:10014000BF91AF919F918F917F916F915F914F91EF
:100150003F912F910F900FBE0F901F9018951F92F7
:100160000F920FB60F9211242F933F934F935F93EB
:100170006F937F938F939F93AF93BF93EF93FF936F
:10018000E0910201F0910301309709F0099581E0B7
:1001900080936F00FF91EF91BF91AF919F918F91ED
:1001A0007F916F915F914F913F912F910F900FBE73
:1001B0000F901F9018951F920F920FB60F92112457
:1001C0002F933F934F935F936F937F938F939F935F
:1001D000AF93BF93EF93FF93E0910001F091010182
:1001E000309709F0099580E280936F00FF91EF91BD
:1001F000BF91AF919F918F917F916F915F914F913F
:100200003F912F910F900FBE0F901F901895109255
:1002100089001092880010928B0010928A0082EA66
:10022000809380008BE18093810088E893E1909334
:1002300087008093860013BC80E280936F0080E08B
:10024000089513BE15BE789480E0089586E084B9C1
:1002500017B880E28AB915B818B81BB813B816B821
:1002600019B8089580911E0190911F01A09120015D
:10027000B09121010196A11DB11D80931E019093A3
:100280001F01A0932001B0932101089508950895BE
:1002900060911E0170911F018091200190912101B8
:1002A00008951F920F920FB60F9211242F933F9330
:1002B0004F935F936F937F938F939F93AF93BF936E
:1002C000EF93FF93E0910C01F0910D01309709F04D
:1002D000099581E085BBFF91EF91BF91AF919F910F
:1002E0008F917F916F915F914F913F912F910F90DF
:1002F0000FBE0F901F9018951F920F920FB60F927E
:1003000011242F933F934F935F936F937F938F931A
:100310009F93AF93BF93EF93FF93E0910A01F09106
:100320000B01309709F0099582E085BBFF91EF91B1
:10033000BF91AF919F918F917F916F915F914F91FD
:100340003F912F910F900FBE0F901F9018951F9205
:100350000F920FB60F9211242F933F934F935F93F9
:100360006F937F938F939F93AF93BF93EF93FF937D
:10037000E0910801F0910901309709F0099515BA4B
:10038000FF91EF91BF91AF919F918F917F916F916D
:100390005F914F913F912F910F900FBE0F901F9043
:1003A00018958AEF87BD18BC16BC13BC82E084BDCB
:1003B00093E095BD80936E0080E0089583E0809384
:1003C000690081E08DBB80E008951F920F920FB607
:1003D0000F9211248F939F93E09880912201909126
:1003E0002301019690932301809322019F918F9185
:1003F0000F900FBE0F901F9018951F920F920FB67F
:100400000F921124E1980F900FBE0F901F90189536
:100410001F920F920FB60F9211248F93EF93FF93B9
:10042000E0E6F0E080818F778083FF91EF918F91FC
:100430000F900FBE0F901F9018951092610013BE81
:1004400015BE80E008950E9426010E941D021092B0
:1004500060000E9407010E94CD040E94DE010E94FC
:1004600021010E94D10108950E942302A09012014F
:10047000B0901301C0901401D0901501E0901601C6
:10048000F09017010091180110911901809111014C
:100490008F93809110018F9380910F018F938091A2
:1004A0000E018F932AE131E044E251E068E271E00D
:1004B00080E391E00E945E0490932F0180932E01CF
:1004C00000E010E02AEF33E440E050E06AE773E434
:1004D0000E944F0380912E0190912F010E94D5031D
:1004E0000F900F900F900F900F2ECC24CA94F3E032
:1004F000DF2EE12CF12CF02DC8E8D0E087E00E943F
:10050000F1049C01AAEFB0E00E948107A7019601C7
:100510000E945F07CA01B90166507F4F8F4F9F4FFE
:100520000E943B0660931A0170931B0180931C018B
:1005300090931D010E940C0679836883DFCF4F9250
:100540005F926F927F928F929F92AF92BF92CF9263
:10055000DF92EF92FF920F931F93CF93DF9300D020
:1005600000D000D0CDB7DEB79E838D834A015B01FA
:100570002801390120E030E0A901C501B4010E9441
:10058000950588230CF474C020E030E0A901C30174
:10059000B2010E94950588230CF46AC020E030E087
:1005A000A901C701B6010E94950588230CF460C01B
:1005B000ED81FE8166A177A180A591A50E943B06F1
:1005C00020E030E04AE754E40E949A0569837A8388
:1005D0008B839C83ED81FE8186829782A086B18683
:1005E0009B01AC01C301B2010E94F2062B013C0148
:1005F000ED81FE81628773878487958729813A819F
:100600004B815C81C701B6010E949A056B017C0198
:10061000ED81FE8166877787808B918B83A5813002
:1006200039F5A501940160E070E0CB010E94280536
:10063000ED81FE816683778380879187A301920194
:1006400060E070E0CB010E942805ED81FE816287A9
:10065000738784879587A701960160E070E0CB01DE
:100660000E942805ED81FE8166877787808B918BBC
:1006700026960FB6F894DEBF0FBECDBFDF91CF91A7
:100680001F910F91FF90EF90DF90CF90BF90AF90B0
:100690009F908F907F906F905F904F9008952F92D2
:1006A0003F924F925F926F927F928F929F92AF9202
:1006B000BF92CF92DF92EF92FF920F931F93CF934F
:1006C000DF93EC014A015B0168017901A9019801FE
:1006D000C501B4010E94ED0688230CF053C08A8A3C
:1006E0009B8AAC8ABD8ACE8ADF8AE88EF98E8AA57B
:1006F000882309F447C02A803B80F1014080518063
:1007000062807380A3019201C701B6010E94950522
:10071000882334F4F101C082D182E282F3820DC0D9
:10072000A3019201C501B4010E94ED0618162CF434
:10073000F10180829182A282B382CA8CDB8CEC8C24
:10074000FD8C8E889F88A88CB98CA5019401C70167
:10075000B6010E94ED0618162CF48A8E9B8EAC8E84
:10076000BD8E10C08A889B88AC88BD88A501940185
:10077000C701B6010E949505882324F48A8E9B8EBA
:10078000AC8EBD8EDF91CF911F910F91FF90EF90B6
:10079000DF90CF90BF90AF909F908F907F906F90A1
:1007A0005F904F903F902F9008958F929F92AF92BD
:1007B000BF92CF92DF92EF92FF92CF93DF93FC0133
:1007C00022A5211139C0EC010280F381E02DC08007
:1007D000D180E280F380CA8EDB8EEC8EFD8EE881C4
:1007E000F98180819181A281B3818E8F9F8FA8A38F
:1007F000B9A38E889F88A88CB98CA5019401C701E4
:10080000B6010E94ED0618162CF48A8E9B8EAC8ED3
:10081000BD8E10C08A889B88AC88BD88A5019401D4
:10082000C701B6010E949505882324F48A8E9B8E09
:10083000AC8EBD8E81E08AA7DF91CF91FF90EF90C3
:10084000DF90CF90BF90AF909F908F9008951F93AF
:10085000CF93DF93EC01162F8AA5882351F18BA546
:10086000861739F12E813F814885598560E070E017
:10087000CB010E9428056E837F83888799872A850C
:100880003B854C855D8560E070E0CB010E942805CA
:100890006A877B878C879D872E853F854889598904
:1008A00060E070E0CB010E9428056E877F87888B0F
:1008B000998B1BA7DF91CF911F9108954F925F9263
:1008C0006F927F928F929F92AF92BF92CF92DF9260
:1008D000EF92FF920F931F93CF93DF9300D000D03E
:1008E000CDB7DEB74C0127013801A982BA82CB828D
:1008F000DC82FC01718360835383428335832483CC
:1009000012A6128A138A148A158A80E090E0AFE753
:10091000B3E4868B978BA08FB18F84E690E0A0E044
:10092000B0E086A397A3A0A7B1A760E0C4010E948E
:100930002704CF88D88CE98CFA8C09811A812B8105
:100940003C81B301A201C4010E949F020E944801A0
:10095000F40106A117A120A531A5DC01CB01801B64
:10096000910BA20BB30B82A393A3A4A3B5A3C401C1
:100970000F900F900F900F90DF91CF911F910F91DB
:10098000FF90EF90DF90CF90BF90AF909F908F90AF
:100990007F906F905F904F9008958FE080937C00E0
:1009A00010927B0081E880937A0080E00895ECE764
:1009B000F0E09081907F90839081892B8083EAE79B
:1009C000F0E0808180648083089580917A00829530
:1009D00081700895809178002091790090E0922BA9
:1009E00008950E94D7040E94E5048823E1F30E9441
:1009F000EA04EAE7F0E020812061208308951F9255
:100A00000F920FB60F9211242F933F934F935F9342
:100A10006F937F938F939F93AF93BF93EF93FF93C6
:100A2000E0912C01F0912D01309709F00995FF918B
:100A3000EF91BF91AF919F918F917F916F915F9156
:100A40004F913F912F910F900FBE0F901F901895CF
:100A50005058BB27AA270E9440050C94B3060E9459
:100A6000A50638F00E94AC0620F039F49F3F19F437
:100A700026F40C94A2060EF4E095E7FB0C949C0679
:100A8000E92F0E94C40658F3BA1762077307840758
:100A9000950720F079F4A6F50C94E6060EF4E0959F
:100AA0000B2EBA2FA02D0B01B90190010C01CA0128
:100AB000A0011124FF27591B99F0593F50F4503ED3
:100AC00068F11A16F040A22F232F342F4427585FC5
:100AD000F3CF469537952795A795F0405395C9F7DD
:100AE0007EF41F16BA0B620B730B840BBAF0915095
:100AF000A1F0FF0FBB1F661F771F881FC2F70EC034
:100B0000BA0F621F731F841F48F487957795679506
:100B1000B795F7959E3F08F0B0CF9395880F08F0F2
:100B20009927EE0F9795879508950E94780608F407
:100B300081E008950E94AE050C94B3060E94AC06B5
:100B400058F00E94A50640F029F45F3F29F00C946C
:100B50009C0651110C94E7060C94A2060E94C40650
:100B600068F39923B1F3552391F3951B550BBB27DC
:100B7000AA2762177307840738F09F5F5F4F220F21
:100B8000331F441FAA1FA9F335D00E2E3AF0E0E818
:100B900032D091505040E695001CCAF72BD0FE2F62
:100BA00029D0660F771F881FBB1F261737074807F6
:100BB000AB07B0E809F0BB0B802DBF01FF279358AE
:100BC0005F4F3AF09E3F510578F00C949C060C94D0
:100BD000E7065F3FE4F3983ED4F3869577956795F3
:100BE000B795F7959F5FC9F7880F911D96958795E3
:100BF00097F90895E1E0660F771F881FBB1F621702
:100C000073078407BA0720F0621B730B840BBA0BBF
:100C1000EE1F88F7E09508950E94CC0688F09F5754
:100C200098F0B92F9927B751B0F0E1F0660F771F10
:100C3000881F991F1AF0BA95C9F714C0B13091F006
:100C40000E94E606B1E008950C94E606672F782F1F
:100C50008827B85F39F0B93FCCF3869577956795CB
:100C6000B395D9F73EF490958095709561957F4F37
:100C70008F4F9F4F0895E89409C097FB3EF49095DD
:100C80008095709561957F4F8F4F9F4F9923A9F065
:100C9000F92F96E9BB279395F695879577956795F4
:100CA000B795F111F8CFFAF4BB0F11F460FF1BC038
:100CB0006F5F7F4F8F4F9F4F16C0882311F096E9CB
:100CC00011C0772321F09EE8872F762F05C0662379
:100CD00071F096E8862F70E060E02AF09A95660F32
:100CE000771F881FDAF7880F9695879597F90895EB
:100CF000990F0008550FAA0BE0E8FEEF161617062D
:100D0000E807F907C0F012161306E407F50798F094
:100D1000621B730B840B950B39F40A2661F0232BAD
:100D2000242B252B21F408950A2609F4A140A69529
:100D30008FEF811D811D089597F99F6780E870E00E
:100D400060E008959FEF80EC089500240A94161641
:100D5000170618060906089500240A9412161306A9
:100D6000140605060895092E0394000C11F4882337
:100D700052F0BB0F40F4BF2B11F460FF04C06F5F53
:100D80007F4F8F4F9F4F089557FD9058440F551F29
:100D900059F05F3F71F04795880F97FB991F61F0FD
:100DA0009F3F79F087950895121613061406551F74
:100DB000F2CF4695F1DF08C0161617061806991FE0
:100DC000F1CF86957105610508940895E894BB27D5
:100DD00066277727CB0197F908950E94780608F4D3
:100DE0008FEF08950E9405070C94B3060E94A50694
:100DF00038F00E94AC0620F0952311F00C949C066C
:100E00000C94A20611240C94E7060E94C40670F309
:100E1000959FC1F3950F50E0551F629FF001729F9F
:100E2000BB27F00DB11D639FAA27F00DB11DAA1FAE
:100E3000649F6627B00DA11D661F829F2227B00DFB
:100E4000A11D621F739FB00DA11D621F839FA00D86
:100E5000611D221F749F3327A00D611D231F849FD6
:100E6000600D211D822F762F6A2F11249F5750402D
:100E70009AF0F1F088234AF0EE0FFF1FBB1F661FA8
:100E8000771F881F91505040A9F79E3F510580F071
:100E90000C949C060C94E7065F3FE4F3983ED4F371
:100EA000869577956795B795F795E7959F5FC1F715
:100EB000FE2B880F911D9695879597F90895A1E2CD
:100EC0001A2EAA1BBB1BFD010DC0AA1FBB1FEE1FC4
:100ED000FF1FA217B307E407F50720F0A21BB30B0F
:100EE000E40BF50B661F771F881F991F1A9469F78B
:100EF00060957095809590959B01AC01BD01CF01E7
:100F00000895A29FB001B39FC001A39F700D811DE2
:100F10001124911DB29F700D811D1124911D089502
:040F2000F894FFCF73
:100F240056005500540053004701460132010000A9
:0E0F3400803F0000803F000020400080BB4452
:02000004008278
:03000000C7DF0453
:00000001FF
